{
  "_format": "hh-sol-artifact-1",
  "contractName": "NFTMarketplace",
  "sourceName": "contracts/NFTMarketplace.sol",
  "abi": [
    {
      "inputs": [],
      "stateMutability": "nonpayable",
      "type": "constructor"
    },
    {
      "anonymous": false,
      "inputs": [
        {
          "indexed": true,
          "internalType": "uint256",
          "name": "itemId",
          "type": "uint256"
        },
        {
          "indexed": true,
          "internalType": "address",
          "name": "nftContract",
          "type": "address"
        },
        {
          "indexed": true,
          "internalType": "uint256",
          "name": "tokenId",
          "type": "uint256"
        },
        {
          "indexed": false,
          "internalType": "address",
          "name": "seller",
          "type": "address"
        },
        {
          "indexed": false,
          "internalType": "address",
          "name": "owner",
          "type": "address"
        },
        {
          "indexed": false,
          "internalType": "uint256",
          "name": "price",
          "type": "uint256"
        },
        {
          "indexed": false,
          "internalType": "bool",
          "name": "sold",
          "type": "bool"
        }
      ],
      "name": "MarketItemCreated",
      "type": "event"
    },
    {
      "inputs": [
        {
          "internalType": "address",
          "name": "nftContract",
          "type": "address"
        },
        {
          "internalType": "uint256",
          "name": "tokenId",
          "type": "uint256"
        },
        {
          "internalType": "uint256",
          "name": "price",
          "type": "uint256"
        }
      ],
      "name": "createMarketItem",
      "outputs": [],
      "stateMutability": "payable",
      "type": "function"
    },
    {
      "inputs": [
        {
          "internalType": "address",
          "name": "nftContract",
          "type": "address"
        },
        {
          "internalType": "uint256",
          "name": "itemId",
          "type": "uint256"
        }
      ],
      "name": "createMarketSale",
      "outputs": [],
      "stateMutability": "payable",
      "type": "function"
    },
    {
      "inputs": [],
      "name": "fetchMarketItems",
      "outputs": [
        {
          "components": [
            {
              "internalType": "uint256",
              "name": "itemId",
              "type": "uint256"
            },
            {
              "internalType": "address",
              "name": "nftContract",
              "type": "address"
            },
            {
              "internalType": "uint256",
              "name": "tokenId",
              "type": "uint256"
            },
            {
              "internalType": "address payable",
              "name": "seller",
              "type": "address"
            },
            {
              "internalType": "address payable",
              "name": "owner",
              "type": "address"
            },
            {
              "internalType": "uint256",
              "name": "price",
              "type": "uint256"
            },
            {
              "internalType": "bool",
              "name": "sold",
              "type": "bool"
            }
          ],
          "internalType": "struct NFTMarketplace.MarketItem[]",
          "name": "",
          "type": "tuple[]"
        }
      ],
      "stateMutability": "view",
      "type": "function"
    },
    {
      "inputs": [],
      "name": "owner",
      "outputs": [
        {
          "internalType": "address",
          "name": "",
          "type": "address"
        }
      ],
      "stateMutability": "view",
      "type": "function"
    }
  ],
  "bytecode": "0x608060405234801561001057600080fd5b5060016000819055503373ffffffffffffffffffffffffffffffffffffffff16600360009054906101000a905050506111148061004e6000396000f3fe60806040526004361061003f5760003560e01c80630f08efe01461004457806358eb2df51461006f5780638da5cb5b1461008b578063c23b139e146100b6575b600080fd5b34801561005057600080fd5b506100596100d2565b6040516100669190610be4565b60405180910390f35b61008960048036038101906100849190610c63565b61039b565b005b34801561009757600080fd5b506100a0610675565b6040516100ad9190610cc5565b60405180910390f35b6100d060048036038101906100cb9190610ce0565b61069b565b005b606060006100e06001610913565b905060006100ee6002610913565b6100f86001610913565b6101029190610d4f565b90506000808267ffffffffffffffff81111561012157610120610d83565b5b60405190808252806020026020018201604052801561015a57816020015b610147610990565b81526020019060019003908161013f5790505b50905060005b8481101561039057600073ffffffffffffffffffffffffffffffffffffffff16600460006001846101919190610db2565b815260200190815260200160002060040160009054906101000a900473ffffffffffffffffffffffffffffffffffffffff1673ffffffffffffffffffffffffffffffffffffffff160361037d5760006001826101ed9190610db2565b90506000600460008381526020019081526020016000209050806040518060e0016040529081600082015481526020016001820160009054906101000a900473ffffffffffffffffffffffffffffffffffffffff1673ffffffffffffffffffffffffffffffffffffffff1673ffffffffffffffffffffffffffffffffffffffff168152602001600282015481526020016003820160009054906101000a900473ffffffffffffffffffffffffffffffffffffffff1673ffffffffffffffffffffffffffffffffffffffff1673ffffffffffffffffffffffffffffffffffffffff1681526020016004820160009054906101000a900473ffffffffffffffffffffffffffffffffffffffff1673ffffffffffffffffffffffffffffffffffffffff1673ffffffffffffffffffffffffffffffffffffffff168152602001600582015481526020016006820160009054906101000a900460ff1615151515815250508486815181106103605761035f610de6565b5b60200260200101819052506001856103789190610db2565b945050505b808061038890610e15565b915050610160565b508094505050505090565b6103a3610921565b600081116103e6576040517f08c379a00000000000000000000000000000000000000000000000000000000081526004016103dd90610eba565b60405180910390fd5b6103f06001610970565b60006103fc6001610913565b90506040518060e001604052808281526020018573ffffffffffffffffffffffffffffffffffffffff1681526020018481526020013373ffffffffffffffffffffffffffffffffffffffff168152602001600073ffffffffffffffffffffffffffffffffffffffff16815260200183815260200160001515815250600460008381526020019081526020016000206000820151816000015560208201518160010160006101000a81548173ffffffffffffffffffffffffffffffffffffffff021916908373ffffffffffffffffffffffffffffffffffffffff1602179055506040820151816002015560608201518160030160006101000a81548173ffffffffffffffffffffffffffffffffffffffff021916908373ffffffffffffffffffffffffffffffffffffffff16021790555060808201518160040160006101000a81548173ffffffffffffffffffffffffffffffffffffffff021916908373ffffffffffffffffffffffffffffffffffffffff16021790555060a0820151816005015560c08201518160060160006101000a81548160ff0219169083151502179055509050508373ffffffffffffffffffffffffffffffffffffffff166323b872dd3330866040518463ffffffff1660e01b81526004016105dd93929190610ee9565b600060405180830381600087803b1580156105f757600080fd5b505af115801561060b573d6000803e3d6000fd5b50505050828473ffffffffffffffffffffffffffffffffffffffff16827f045dfa01dcba2b36aba1d3dc4a874f4b0c5d2fbeb8d2c4b34a7d88c8d8f929d133600087600060405161065f9493929190610f2f565b60405180910390a450610670610986565b505050565b600360009054906101000a900473ffffffffffffffffffffffffffffffffffffffff1681565b6106a3610921565b60006004600083815260200190815260200160002060050154905060006004600084815260200190815260200160002060020154905060006004600085815260200190815260200160002060060160009054906101000a900460ff169050823414610743576040517f08c379a000000000000000000000000000000000000000000000000000000000815260040161073a90610fe6565b60405180910390fd5b600115158115150361078a576040517f08c379a000000000000000000000000000000000000000000000000000000000815260040161078190611052565b60405180910390fd5b6004600085815260200190815260200160002060030160009054906101000a900473ffffffffffffffffffffffffffffffffffffffff1673ffffffffffffffffffffffffffffffffffffffff166108fc349081150290604051600060405180830381858888f19350505050158015610806573d6000803e3d6000fd5b508473ffffffffffffffffffffffffffffffffffffffff166323b872dd3033856040518463ffffffff1660e01b815260040161084493929190610ee9565b600060405180830381600087803b15801561085e57600080fd5b505af1158015610872573d6000803e3d6000fd5b50505050336004600086815260200190815260200160002060040160006101000a81548173ffffffffffffffffffffffffffffffffffffffff021916908373ffffffffffffffffffffffffffffffffffffffff1602179055506108d56002610970565b60016004600086815260200190815260200160002060060160006101000a81548160ff02191690831515021790555050505061090f610986565b5050565b600081600001549050919050565b600260005403610966576040517f08c379a000000000000000000000000000000000000000000000000000000000815260040161095d906110be565b60405180910390fd5b6002600081905550565b6001816000016000828254019250508190555050565b6001600081905550565b6040518060e0016040528060008152602001600073ffffffffffffffffffffffffffffffffffffffff16815260200160008152602001600073ffffffffffffffffffffffffffffffffffffffff168152602001600073ffffffffffffffffffffffffffffffffffffffff168152602001600081526020016000151581525090565b600081519050919050565b600082825260208201905092915050565b6000819050602082019050919050565b6000819050919050565b610a5081610a3d565b82525050565b600073ffffffffffffffffffffffffffffffffffffffff82169050919050565b6000610a8182610a56565b9050919050565b610a9181610a76565b82525050565b6000610aa282610a56565b9050919050565b610ab281610a97565b82525050565b60008115159050919050565b610acd81610ab8565b82525050565b60e082016000820151610ae96000850182610a47565b506020820151610afc6020850182610a88565b506040820151610b0f6040850182610a47565b506060820151610b226060850182610aa9565b506080820151610b356080850182610aa9565b5060a0820151610b4860a0850182610a47565b5060c0820151610b5b60c0850182610ac4565b50505050565b6000610b6d8383610ad3565b60e08301905092915050565b6000602082019050919050565b6000610b9182610a11565b610b9b8185610a1c565b9350610ba683610a2d565b8060005b83811015610bd7578151610bbe8882610b61565b9750610bc983610b79565b925050600181019050610baa565b5085935050505092915050565b60006020820190508181036000830152610bfe8184610b86565b905092915050565b600080fd5b610c1481610a76565b8114610c1f57600080fd5b50565b600081359050610c3181610c0b565b92915050565b610c4081610a3d565b8114610c4b57600080fd5b50565b600081359050610c5d81610c37565b92915050565b600080600060608486031215610c7c57610c7b610c06565b5b6000610c8a86828701610c22565b9350506020610c9b86828701610c4e565b9250506040610cac86828701610c4e565b9150509250925092565b610cbf81610a76565b82525050565b6000602082019050610cda6000830184610cb6565b92915050565b60008060408385031215610cf757610cf6610c06565b5b6000610d0585828601610c22565b9250506020610d1685828601610c4e565b9150509250929050565b7f4e487b7100000000000000000000000000000000000000000000000000000000600052601160045260246000fd5b6000610d5a82610a3d565b9150610d6583610a3d565b9250828203905081811115610d7d57610d7c610d20565b5b92915050565b7f4e487b7100000000000000000000000000000000000000000000000000000000600052604160045260246000fd5b6000610dbd82610a3d565b9150610dc883610a3d565b9250828201905080821115610de057610ddf610d20565b5b92915050565b7f4e487b7100000000000000000000000000000000000000000000000000000000600052603260045260246000fd5b6000610e2082610a3d565b91507fffffffffffffffffffffffffffffffffffffffffffffffffffffffffffffffff8203610e5257610e51610d20565b5b600182019050919050565b600082825260208201905092915050565b7f5072696365206d7573742062652067726561746572207468616e203000000000600082015250565b6000610ea4601c83610e5d565b9150610eaf82610e6e565b602082019050919050565b60006020820190508181036000830152610ed381610e97565b9050919050565b610ee381610a3d565b82525050565b6000606082019050610efe6000830186610cb6565b610f0b6020830185610cb6565b610f186040830184610eda565b949350505050565b610f2981610ab8565b82525050565b6000608082019050610f446000830187610cb6565b610f516020830186610cb6565b610f5e6040830185610eda565b610f6b6060830184610f20565b95945050505050565b7f506c65617365207375626d6974207468652061736b696e67207072696365206960008201527f6e206f7264657220746f20636f6d706c65746520746865207075726368617365602082015250565b6000610fd0604083610e5d565b9150610fdb82610f74565b604082019050919050565b60006020820190508181036000830152610fff81610fc3565b9050919050565b7f546869732053616c652068617320616c72656164792066696e69736865640000600082015250565b600061103c601e83610e5d565b915061104782611006565b602082019050919050565b6000602082019050818103600083015261106b8161102f565b9050919050565b7f5265656e7472616e637947756172643a207265656e7472616e742063616c6c00600082015250565b60006110a8601f83610e5d565b91506110b382611072565b602082019050919050565b600060208201905081810360008301526110d78161109b565b905091905056fea2646970667358221220b7af1a1d29468263f5c3f0b4d461a62ab39681cb51efef10662e6b4f0877893564736f6c63430008120033",
  "linkReferences": {},
  "deployedLinkReferences": {}
}